{
  "contractName": "Registry",
  "abi": [
    {
      "inputs": [],
      "stateMutability": "nonpayable",
      "type": "constructor"
    },
    {
      "inputs": [
        {
          "internalType": "address",
          "name": "",
          "type": "address"
        }
      ],
      "name": "admins",
      "outputs": [
        {
          "internalType": "address",
          "name": "adminAddress",
          "type": "address"
        },
        {
          "internalType": "string",
          "name": "city",
          "type": "string"
        },
        {
          "internalType": "string",
          "name": "district",
          "type": "string"
        },
        {
          "internalType": "string",
          "name": "state",
          "type": "string"
        }
      ],
      "stateMutability": "view",
      "type": "function",
      "constant": true
    },
    {
      "inputs": [
        {
          "internalType": "string",
          "name": "",
          "type": "string"
        },
        {
          "internalType": "string",
          "name": "",
          "type": "string"
        },
        {
          "internalType": "string",
          "name": "",
          "type": "string"
        },
        {
          "internalType": "uint256",
          "name": "",
          "type": "uint256"
        }
      ],
      "name": "landDetalsMap",
      "outputs": [
        {
          "internalType": "address",
          "name": "owner",
          "type": "address"
        },
        {
          "internalType": "address",
          "name": "admin",
          "type": "address"
        },
        {
          "internalType": "uint256",
          "name": "propertyId",
          "type": "uint256"
        },
        {
          "internalType": "uint256",
          "name": "surveyNumber",
          "type": "uint256"
        },
        {
          "internalType": "uint256",
          "name": "index",
          "type": "uint256"
        },
        {
          "internalType": "bool",
          "name": "registered",
          "type": "bool"
        },
        {
          "internalType": "uint256",
          "name": "marketValue",
          "type": "uint256"
        },
        {
          "internalType": "bool",
          "name": "markAvailable",
          "type": "bool"
        },
        {
          "internalType": "uint256",
          "name": "noOfRequests",
          "type": "uint256"
        },
        {
          "internalType": "uint256",
          "name": "sqft",
          "type": "uint256"
        }
      ],
      "stateMutability": "view",
      "type": "function",
      "constant": true
    },
    {
      "inputs": [
        {
          "internalType": "address",
          "name": "",
          "type": "address"
        },
        {
          "internalType": "uint256",
          "name": "",
          "type": "uint256"
        }
      ],
      "name": "ownerMapsProperty",
      "outputs": [
        {
          "internalType": "uint256",
          "name": "surveyNumber",
          "type": "uint256"
        },
        {
          "internalType": "string",
          "name": "state",
          "type": "string"
        },
        {
          "internalType": "string",
          "name": "district",
          "type": "string"
        },
        {
          "internalType": "string",
          "name": "city",
          "type": "string"
        }
      ],
      "stateMutability": "view",
      "type": "function",
      "constant": true
    },
    {
      "inputs": [
        {
          "internalType": "address",
          "name": "",
          "type": "address"
        },
        {
          "internalType": "uint256",
          "name": "",
          "type": "uint256"
        }
      ],
      "name": "requestedLands",
      "outputs": [
        {
          "internalType": "uint256",
          "name": "surveyNumber",
          "type": "uint256"
        },
        {
          "internalType": "string",
          "name": "state",
          "type": "string"
        },
        {
          "internalType": "string",
          "name": "district",
          "type": "string"
        },
        {
          "internalType": "string",
          "name": "city",
          "type": "string"
        }
      ],
      "stateMutability": "view",
      "type": "function",
      "constant": true
    },
    {
      "inputs": [],
      "name": "superAdmin",
      "outputs": [
        {
          "internalType": "address",
          "name": "",
          "type": "address"
        }
      ],
      "stateMutability": "view",
      "type": "function",
      "constant": true
    },
    {
      "inputs": [],
      "name": "totalAdmins",
      "outputs": [
        {
          "internalType": "uint256",
          "name": "",
          "type": "uint256"
        }
      ],
      "stateMutability": "view",
      "type": "function",
      "constant": true
    },
    {
      "inputs": [
        {
          "internalType": "address",
          "name": "",
          "type": "address"
        }
      ],
      "name": "userProfile",
      "outputs": [
        {
          "internalType": "address",
          "name": "userAddr",
          "type": "address"
        },
        {
          "internalType": "string",
          "name": "fullName",
          "type": "string"
        },
        {
          "internalType": "string",
          "name": "gender",
          "type": "string"
        },
        {
          "internalType": "string",
          "name": "email",
          "type": "string"
        },
        {
          "internalType": "uint256",
          "name": "contact",
          "type": "uint256"
        },
        {
          "internalType": "string",
          "name": "residentialAddr",
          "type": "string"
        },
        {
          "internalType": "uint256",
          "name": "totalIndices",
          "type": "uint256"
        },
        {
          "internalType": "uint256",
          "name": "requestIndices",
          "type": "uint256"
        }
      ],
      "stateMutability": "view",
      "type": "function",
      "constant": true
    },
    {
      "inputs": [
        {
          "internalType": "address",
          "name": "_adminAddr",
          "type": "address"
        },
        {
          "internalType": "string",
          "name": "_state",
          "type": "string"
        },
        {
          "internalType": "string",
          "name": "_district",
          "type": "string"
        },
        {
          "internalType": "string",
          "name": "_city",
          "type": "string"
        }
      ],
      "name": "addAdmin",
      "outputs": [],
      "stateMutability": "nonpayable",
      "type": "function"
    },
    {
      "inputs": [],
      "name": "isAdmin",
      "outputs": [
        {
          "internalType": "bool",
          "name": "",
          "type": "bool"
        }
      ],
      "stateMutability": "view",
      "type": "function",
      "constant": true
    },
    {
      "inputs": [
        {
          "internalType": "string",
          "name": "_state",
          "type": "string"
        },
        {
          "internalType": "string",
          "name": "_district",
          "type": "string"
        },
        {
          "internalType": "string",
          "name": "_city",
          "type": "string"
        },
        {
          "internalType": "uint256",
          "name": "_propertyId",
          "type": "uint256"
        },
        {
          "internalType": "uint256",
          "name": "_surveyNo",
          "type": "uint256"
        },
        {
          "internalType": "address",
          "name": "_owner",
          "type": "address"
        },
        {
          "internalType": "uint256",
          "name": "_marketValue",
          "type": "uint256"
        },
        {
          "internalType": "uint256",
          "name": "_sqft",
          "type": "uint256"
        }
      ],
      "name": "registerLand",
      "outputs": [],
      "stateMutability": "nonpayable",
      "type": "function"
    },
    {
      "inputs": [
        {
          "internalType": "string",
          "name": "_fullName",
          "type": "string"
        },
        {
          "internalType": "string",
          "name": "_gender",
          "type": "string"
        },
        {
          "internalType": "string",
          "name": "_email",
          "type": "string"
        },
        {
          "internalType": "uint256",
          "name": "_contact",
          "type": "uint256"
        },
        {
          "internalType": "string",
          "name": "_residentialAddr",
          "type": "string"
        }
      ],
      "name": "setUserProfile",
      "outputs": [],
      "stateMutability": "nonpayable",
      "type": "function"
    },
    {
      "inputs": [
        {
          "internalType": "uint256",
          "name": "indexNo",
          "type": "uint256"
        }
      ],
      "name": "markMyPropertyAvailable",
      "outputs": [],
      "stateMutability": "nonpayable",
      "type": "function"
    },
    {
      "inputs": [
        {
          "internalType": "string",
          "name": "_state",
          "type": "string"
        },
        {
          "internalType": "string",
          "name": "_district",
          "type": "string"
        },
        {
          "internalType": "string",
          "name": "_city",
          "type": "string"
        },
        {
          "internalType": "uint256",
          "name": "_surveyNo",
          "type": "uint256"
        }
      ],
      "name": "RequestForBuy",
      "outputs": [],
      "stateMutability": "nonpayable",
      "type": "function"
    },
    {
      "inputs": [
        {
          "internalType": "uint256",
          "name": "_index",
          "type": "uint256"
        },
        {
          "internalType": "uint256",
          "name": "_reqNo",
          "type": "uint256"
        }
      ],
      "name": "AcceptRequest",
      "outputs": [],
      "stateMutability": "nonpayable",
      "type": "function"
    },
    {
      "inputs": [
        {
          "internalType": "string",
          "name": "_state",
          "type": "string"
        },
        {
          "internalType": "string",
          "name": "_district",
          "type": "string"
        },
        {
          "internalType": "string",
          "name": "_city",
          "type": "string"
        },
        {
          "internalType": "uint256",
          "name": "_surveyNo",
          "type": "uint256"
        }
      ],
      "name": "getLandDetails",
      "outputs": [
        {
          "internalType": "address",
          "name": "",
          "type": "address"
        },
        {
          "internalType": "uint256",
          "name": "",
          "type": "uint256"
        },
        {
          "internalType": "uint256",
          "name": "",
          "type": "uint256"
        },
        {
          "internalType": "uint256",
          "name": "",
          "type": "uint256"
        },
        {
          "internalType": "uint256",
          "name": "",
          "type": "uint256"
        }
      ],
      "stateMutability": "view",
      "type": "function",
      "constant": true
    },
    {
      "inputs": [
        {
          "internalType": "string",
          "name": "_state",
          "type": "string"
        },
        {
          "internalType": "string",
          "name": "_district",
          "type": "string"
        },
        {
          "internalType": "string",
          "name": "_city",
          "type": "string"
        },
        {
          "internalType": "uint256",
          "name": "_surveyNo",
          "type": "uint256"
        }
      ],
      "name": "getRequestCnt_propId",
      "outputs": [
        {
          "internalType": "uint256",
          "name": "",
          "type": "uint256"
        },
        {
          "internalType": "uint256",
          "name": "",
          "type": "uint256"
        }
      ],
      "stateMutability": "view",
      "type": "function",
      "constant": true
    },
    {
      "inputs": [
        {
          "internalType": "string",
          "name": "_state",
          "type": "string"
        },
        {
          "internalType": "string",
          "name": "_district",
          "type": "string"
        },
        {
          "internalType": "string",
          "name": "_city",
          "type": "string"
        },
        {
          "internalType": "uint256",
          "name": "_surveyNo",
          "type": "uint256"
        },
        {
          "internalType": "uint256",
          "name": "_reqIndex",
          "type": "uint256"
        }
      ],
      "name": "getRequesterDetail",
      "outputs": [
        {
          "internalType": "address",
          "name": "",
          "type": "address"
        }
      ],
      "stateMutability": "view",
      "type": "function",
      "constant": true
    },
    {
      "inputs": [
        {
          "internalType": "string",
          "name": "_state",
          "type": "string"
        },
        {
          "internalType": "string",
          "name": "_district",
          "type": "string"
        },
        {
          "internalType": "string",
          "name": "_city",
          "type": "string"
        },
        {
          "internalType": "uint256",
          "name": "_surveyNo",
          "type": "uint256"
        }
      ],
      "name": "isAvailable",
      "outputs": [
        {
          "internalType": "bool",
          "name": "",
          "type": "bool"
        }
      ],
      "stateMutability": "view",
      "type": "function",
      "constant": true
    },
    {
      "inputs": [
        {
          "internalType": "uint256",
          "name": "indx",
          "type": "uint256"
        }
      ],
      "name": "getOwnerOwns",
      "outputs": [
        {
          "internalType": "string",
          "name": "",
          "type": "string"
        },
        {
          "internalType": "string",
          "name": "",
          "type": "string"
        },
        {
          "internalType": "string",
          "name": "",
          "type": "string"
        },
        {
          "internalType": "uint256",
          "name": "",
          "type": "uint256"
        }
      ],
      "stateMutability": "view",
      "type": "function",
      "constant": true
    },
    {
      "inputs": [
        {
          "internalType": "uint256",
          "name": "indx",
          "type": "uint256"
        }
      ],
      "name": "getRequestedLands",
      "outputs": [
        {
          "internalType": "string",
          "name": "",
          "type": "string"
        },
        {
          "internalType": "string",
          "name": "",
          "type": "string"
        },
        {
          "internalType": "string",
          "name": "",
          "type": "string"
        },
        {
          "internalType": "uint256",
          "name": "",
          "type": "uint256"
        }
      ],
      "stateMutability": "view",
      "type": "function",
      "constant": true
    },
    {
      "inputs": [],
      "name": "getUserProfile",
      "outputs": [
        {
          "internalType": "string",
          "name": "",
          "type": "string"
        },
        {
          "internalType": "string",
          "name": "",
          "type": "string"
        },
        {
          "internalType": "string",
          "name": "",
          "type": "string"
        },
        {
          "internalType": "uint256",
          "name": "",
          "type": "uint256"
        },
        {
          "internalType": "string",
          "name": "",
          "type": "string"
        }
      ],
      "stateMutability": "view",
      "type": "function",
      "constant": true
    },
    {
      "inputs": [],
      "name": "getIndices",
      "outputs": [
        {
          "internalType": "uint256",
          "name": "",
          "type": "uint256"
        },
        {
          "internalType": "uint256",
          "name": "",
          "type": "uint256"
        }
      ],
      "stateMutability": "view",
      "type": "function",
      "constant": true
    },
    {
      "inputs": [
        {
          "internalType": "string",
          "name": "_state",
          "type": "string"
        },
        {
          "internalType": "string",
          "name": "_district",
          "type": "string"
        },
        {
          "internalType": "string",
          "name": "_city",
          "type": "string"
        },
        {
          "internalType": "uint256",
          "name": "_surveyNo",
          "type": "uint256"
        }
      ],
      "name": "didIRequested",
      "outputs": [
        {
          "internalType": "bool",
          "name": "",
          "type": "bool"
        }
      ],
      "stateMutability": "view",
      "type": "function",
      "constant": true
    }
  ],
  "bytecode": "0x608060405234801561001057600080fd5b50336000806101000a81548173ffffffffffffffffffffffffffffffffffffffff021916908373ffffffffffffffffffffffffffffffffffffffff1602179055506149d4806100606000396000f3fe608060405234801561001057600080fd5b506004361061014d5760003560e01c80636d1b9a8e116100c3578063d06efd671161007c578063d06efd67146103f7578063d1dbeff214610428578063d41cc5c81461045b578063e331ad7c14610477578063eaec23fa146104ab578063eb68048b146104db5761014d565b80636d1b9a8e1461031c5780636f61c7441461034f5780638a80e4e414610371578063992369da1461038d578063b6db75a0146103bd578063bfde241c146103db5761014d565b80632a52ee86116101155780632a52ee861461022f5780632ca305f31461024b5780633bbd43b31461027e578063429b62e5146102ae57806344e05734146102e15780635863056d146102fd5761014d565b806303825d6c146101525780630e2279af1461016e5780631555ff1e146101a15780631c8e8962146101da57806329575f6a14610211575b600080fd5b61016c60048036038101906101679190613b88565b6104f9565b005b61018860048036038101906101839190613c79565b6105e9565b6040516101989493929190613d50565b60405180910390f35b6101bb60048036038101906101b69190613daa565b6107be565b6040516101d19a99989796959493929190613e8f565b60405180910390f35b6101f460048036038101906101ef9190613f2b565b6108d5565b604051610208989796959493929190613f58565b60405180910390f35b610219610b5d565b6040516102269190613ff2565b60405180910390f35b6102496004803603810190610244919061400d565b610b81565b005b61026560048036038101906102609190614117565b6111f6565b6040516102759493929190614144565b60405180910390f35b6102986004803603810190610293919061419e565b61150b565b6040516102a59190613ff2565b60405180910390f35b6102c860048036038101906102c39190613f2b565b6115bc565b6040516102d8949392919061426d565b60405180910390f35b6102fb60048036038101906102f69190614117565b6117a4565b005b610305611be4565b6040516103139291906142c7565b60405180910390f35b61033660048036038101906103319190614117565b611c81565b6040516103469493929190614144565b60405180910390f35b610357611f96565b6040516103689594939291906142f0565b60405180910390f35b61038b60048036038101906103869190613daa565b61233d565b005b6103a760048036038101906103a29190613daa565b612624565b6040516103b4919061435f565b60405180910390f35b6103c56126ad565b6040516103d2919061435f565b60405180910390f35b6103f560048036038101906103f0919061437a565b612756565b005b610411600480360381019061040c9190613daa565b61280e565b60405161041f9291906142c7565b60405180910390f35b610442600480360381019061043d9190613c79565b612900565b6040516104529493929190613d50565b60405180910390f35b61047560048036038101906104709190614465565b612ad5565b005b610491600480360381019061048c9190613daa565b613547565b6040516104a29594939291906144a5565b60405180910390f35b6104c560048036038101906104c09190613daa565b6137b8565b6040516104d2919061435f565b60405180910390f35b6104e36138e7565b6040516104f091906144f8565b60405180910390f35b6000600260008673ffffffffffffffffffffffffffffffffffffffff1673ffffffffffffffffffffffffffffffffffffffff16815260200190815260200160002090506001600081548092919061054f90614542565b9190505550848160000160006101000a81548173ffffffffffffffffffffffffffffffffffffffff021916908373ffffffffffffffffffffffffffffffffffffffff160217905550818160010190805190602001906105af9291906138ed565b50828160020190805190602001906105c89291906138ed565b50838160030190805190602001906105e19291906138ed565b505050505050565b60046020528160005260406000206020528060005260406000206000915091505080600001549080600101805461061f906145ba565b80601f016020809104026020016040519081016040528092919081815260200182805461064b906145ba565b80156106985780601f1061066d57610100808354040283529160200191610698565b820191906000526020600020905b81548152906001019060200180831161067b57829003601f168201915b5050505050908060020180546106ad906145ba565b80601f01602080910402602001604051908101604052809291908181526020018280546106d9906145ba565b80156107265780601f106106fb57610100808354040283529160200191610726565b820191906000526020600020905b81548152906001019060200180831161070957829003601f168201915b50505050509080600301805461073b906145ba565b80601f0160208091040260200160405190810160405280929190818152602001828054610767906145ba565b80156107b45780601f10610789576101008083540402835291602001916107b4565b820191906000526020600020905b81548152906001019060200180831161079757829003601f168201915b5050505050905084565b60058480516020810182018051848252602083016020850120818352809550505050505083805160208101820180518482526020830160208501208183528095505050505050828051602081018201805184825260208301602085012081835280955050505050506020528060005260406000206000935093505050508060000160009054906101000a900473ffffffffffffffffffffffffffffffffffffffff16908060010160009054906101000a900473ffffffffffffffffffffffffffffffffffffffff16908060020154908060030154908060040154908060050160009054906101000a900460ff16908060060154908060070160009054906101000a900460ff169080600901549080600a015490508a565b60066020528060005260406000206000915090508060000160009054906101000a900473ffffffffffffffffffffffffffffffffffffffff169080600101805461091e906145ba565b80601f016020809104026020016040519081016040528092919081815260200182805461094a906145ba565b80156109975780601f1061096c57610100808354040283529160200191610997565b820191906000526020600020905b81548152906001019060200180831161097a57829003601f168201915b5050505050908060020180546109ac906145ba565b80601f01602080910402602001604051908101604052809291908181526020018280546109d8906145ba565b8015610a255780601f106109fa57610100808354040283529160200191610a25565b820191906000526020600020905b815481529060010190602001808311610a0857829003601f168201915b505050505090806003018054610a3a906145ba565b80601f0160208091040260200160405190810160405280929190818152602001828054610a66906145ba565b8015610ab35780601f10610a8857610100808354040283529160200191610ab3565b820191906000526020600020905b815481529060010190602001808311610a9657829003601f168201915b505050505090806004015490806005018054610ace906145ba565b80601f0160208091040260200160405190810160405280929190818152602001828054610afa906145ba565b8015610b475780601f10610b1c57610100808354040283529160200191610b47565b820191906000526020600020905b815481529060010190602001808311610b2a57829003601f168201915b5050505050908060060154908060070154905088565b60008054906101000a900473ffffffffffffffffffffffffffffffffffffffff1681565b3373ffffffffffffffffffffffffffffffffffffffff16600260003373ffffffffffffffffffffffffffffffffffffffff1673ffffffffffffffffffffffffffffffffffffffff16815260200190815260200160002060000160009054906101000a900473ffffffffffffffffffffffffffffffffffffffff1673ffffffffffffffffffffffffffffffffffffffff1614610c51576040517f08c379a0000000000000000000000000000000000000000000000000000000008152600401610c4890614638565b60405180910390fd5b87604051602001610c629190614694565b60405160208183030381529060405280519060200120600260003373ffffffffffffffffffffffffffffffffffffffff1673ffffffffffffffffffffffffffffffffffffffff168152602001908152602001600020600301604051602001610cca919061473f565b60405160208183030381529060405280519060200120148015610d79575086604051602001610cf99190614694565b60405160208183030381529060405280519060200120600260003373ffffffffffffffffffffffffffffffffffffffff1673ffffffffffffffffffffffffffffffffffffffff168152602001908152602001600020600201604051602001610d61919061473f565b60405160208183030381529060405280519060200120145b8015610e11575085604051602001610d919190614694565b60405160208183030381529060405280519060200120600260003373ffffffffffffffffffffffffffffffffffffffff1673ffffffffffffffffffffffffffffffffffffffff168152602001908152602001600020600101604051602001610df9919061473f565b60405160208183030381529060405280519060200120145b610e50576040517f08c379a0000000000000000000000000000000000000000000000000000000008152600401610e47906147c8565b60405180910390fd5b60001515600589604051610e649190614694565b908152602001604051809103902088604051610e809190614694565b908152602001604051809103902087604051610e9c9190614694565b9081526020016040518091039020600086815260200190815260200160002060050160009054906101000a900460ff16151514610f0e576040517f08c379a0000000000000000000000000000000000000000000000000000000008152600401610f059061485a565b60405180910390fd5b6000600589604051610f209190614694565b908152602001604051809103902088604051610f3c9190614694565b908152602001604051809103902087604051610f589190614694565b9081526020016040518091039020600086815260200190815260200160002090506000600360008673ffffffffffffffffffffffffffffffffffffffff1673ffffffffffffffffffffffffffffffffffffffff1681526020019081526020016000206000600660008873ffffffffffffffffffffffffffffffffffffffff1673ffffffffffffffffffffffffffffffffffffffff1681526020019081526020016000206006015481526020019081526020016000209050848260000160006101000a81548173ffffffffffffffffffffffffffffffffffffffff021916908373ffffffffffffffffffffffffffffffffffffffff160217905550338260010160006101000a81548173ffffffffffffffffffffffffffffffffffffffff021916908373ffffffffffffffffffffffffffffffffffffffff160217905550868260020181905550858260030181905550600660008673ffffffffffffffffffffffffffffffffffffffff1673ffffffffffffffffffffffffffffffffffffffff16815260200190815260200160002060060154826004018190555060018260050160006101000a81548160ff02191690831515021790555083826006018190555060008260070160006101000a81548160ff0219169083151502179055508282600a01819055508581600001819055508981600101908051906020019061115f9291906138ed565b50888160020190805190602001906111789291906138ed565b50878160030190805190602001906111919291906138ed565b50600660008673ffffffffffffffffffffffffffffffffffffffff1673ffffffffffffffffffffffffffffffffffffffff16815260200190815260200160002060060160008154809291906111e590614542565b919050555050505050505050505050565b6060806060600080600460003373ffffffffffffffffffffffffffffffffffffffff1673ffffffffffffffffffffffffffffffffffffffff16815260200190815260200160002060008781526020019081526020016000206000015490506000600460003373ffffffffffffffffffffffffffffffffffffffff1673ffffffffffffffffffffffffffffffffffffffff168152602001908152602001600020600088815260200190815260200160002060010180546112b4906145ba565b80601f01602080910402602001604051908101604052809291908181526020018280546112e0906145ba565b801561132d5780601f106113025761010080835404028352916020019161132d565b820191906000526020600020905b81548152906001019060200180831161131057829003601f168201915b505050505090506000600460003373ffffffffffffffffffffffffffffffffffffffff1673ffffffffffffffffffffffffffffffffffffffff16815260200190815260200160002060008981526020019081526020016000206002018054611394906145ba565b80601f01602080910402602001604051908101604052809291908181526020018280546113c0906145ba565b801561140d5780601f106113e25761010080835404028352916020019161140d565b820191906000526020600020905b8154815290600101906020018083116113f057829003601f168201915b505050505090506000600460003373ffffffffffffffffffffffffffffffffffffffff1673ffffffffffffffffffffffffffffffffffffffff16815260200190815260200160002060008a81526020019081526020016000206003018054611474906145ba565b80601f01602080910402602001604051908101604052809291908181526020018280546114a0906145ba565b80156114ed5780601f106114c2576101008083540402835291602001916114ed565b820191906000526020600020905b8154815290600101906020018083116114d057829003601f168201915b50505050509050828282869750975097509750505050509193509193565b60008060058760405161151e9190614694565b90815260200160405180910390208660405161153a9190614694565b9081526020016040518091039020856040516115569190614694565b90815260200160405180910390206000858152602001908152602001600020600801600084815260200190815260200160002060000160009054906101000a900473ffffffffffffffffffffffffffffffffffffffff1690508091505095945050505050565b60026020528060005260406000206000915090508060000160009054906101000a900473ffffffffffffffffffffffffffffffffffffffff1690806001018054611605906145ba565b80601f0160208091040260200160405190810160405280929190818152602001828054611631906145ba565b801561167e5780601f106116535761010080835404028352916020019161167e565b820191906000526020600020905b81548152906001019060200180831161166157829003601f168201915b505050505090806002018054611693906145ba565b80601f01602080910402602001604051908101604052809291908181526020018280546116bf906145ba565b801561170c5780601f106116e15761010080835404028352916020019161170c565b820191906000526020600020905b8154815290600101906020018083116116ef57829003601f168201915b505050505090806003018054611721906145ba565b80601f016020809104026020016040519081016040528092919081815260200182805461174d906145ba565b801561179a5780601f1061176f5761010080835404028352916020019161179a565b820191906000526020600020905b81548152906001019060200180831161177d57829003601f168201915b5050505050905084565b6000600360003373ffffffffffffffffffffffffffffffffffffffff1673ffffffffffffffffffffffffffffffffffffffff16815260200190815260200160002060008381526020019081526020016000206001018054611804906145ba565b80601f0160208091040260200160405190810160405280929190818152602001828054611830906145ba565b801561187d5780601f106118525761010080835404028352916020019161187d565b820191906000526020600020905b81548152906001019060200180831161186057829003601f168201915b505050505090506000600360003373ffffffffffffffffffffffffffffffffffffffff1673ffffffffffffffffffffffffffffffffffffffff168152602001908152602001600020600084815260200190815260200160002060020180546118e4906145ba565b80601f0160208091040260200160405190810160405280929190818152602001828054611910906145ba565b801561195d5780601f106119325761010080835404028352916020019161195d565b820191906000526020600020905b81548152906001019060200180831161194057829003601f168201915b505050505090506000600360003373ffffffffffffffffffffffffffffffffffffffff1673ffffffffffffffffffffffffffffffffffffffff168152602001908152602001600020600085815260200190815260200160002060030180546119c4906145ba565b80601f01602080910402602001604051908101604052809291908181526020018280546119f0906145ba565b8015611a3d5780601f10611a1257610100808354040283529160200191611a3d565b820191906000526020600020905b815481529060010190602001808311611a2057829003601f168201915b505050505090506000600360003373ffffffffffffffffffffffffffffffffffffffff1673ffffffffffffffffffffffffffffffffffffffff168152602001908152602001600020600086815260200190815260200160002060000154905060001515600585604051611ab09190614694565b908152602001604051809103902084604051611acc9190614694565b908152602001604051809103902083604051611ae89190614694565b9081526020016040518091039020600083815260200190815260200160002060070160009054906101000a900460ff16151514611b5a576040517f08c379a0000000000000000000000000000000000000000000000000000000008152600401611b51906148ec565b60405180910390fd5b6001600585604051611b6c9190614694565b908152602001604051809103902084604051611b889190614694565b908152602001604051809103902083604051611ba49190614694565b9081526020016040518091039020600083815260200190815260200160002060070160006101000a81548160ff0219169083151502179055505050505050565b6000806000600660003373ffffffffffffffffffffffffffffffffffffffff1673ffffffffffffffffffffffffffffffffffffffff1681526020019081526020016000206006015490506000600660003373ffffffffffffffffffffffffffffffffffffffff1673ffffffffffffffffffffffffffffffffffffffff16815260200190815260200160002060070154905081819350935050509091565b6060806060600080600360003373ffffffffffffffffffffffffffffffffffffffff1673ffffffffffffffffffffffffffffffffffffffff16815260200190815260200160002060008781526020019081526020016000206000015490506000600360003373ffffffffffffffffffffffffffffffffffffffff1673ffffffffffffffffffffffffffffffffffffffff16815260200190815260200160002060008881526020019081526020016000206001018054611d3f906145ba565b80601f0160208091040260200160405190810160405280929190818152602001828054611d6b906145ba565b8015611db85780601f10611d8d57610100808354040283529160200191611db8565b820191906000526020600020905b815481529060010190602001808311611d9b57829003601f168201915b505050505090506000600360003373ffffffffffffffffffffffffffffffffffffffff1673ffffffffffffffffffffffffffffffffffffffff16815260200190815260200160002060008981526020019081526020016000206002018054611e1f906145ba565b80601f0160208091040260200160405190810160405280929190818152602001828054611e4b906145ba565b8015611e985780601f10611e6d57610100808354040283529160200191611e98565b820191906000526020600020905b815481529060010190602001808311611e7b57829003601f168201915b505050505090506000600360003373ffffffffffffffffffffffffffffffffffffffff1673ffffffffffffffffffffffffffffffffffffffff16815260200190815260200160002060008a81526020019081526020016000206003018054611eff906145ba565b80601f0160208091040260200160405190810160405280929190818152602001828054611f2b906145ba565b8015611f785780601f10611f4d57610100808354040283529160200191611f78565b820191906000526020600020905b815481529060010190602001808311611f5b57829003601f168201915b50505050509050828282869750975097509750505050509193509193565b6060806060600060606000600660003373ffffffffffffffffffffffffffffffffffffffff1673ffffffffffffffffffffffffffffffffffffffff1681526020019081526020016000206001018054611fee906145ba565b80601f016020809104026020016040519081016040528092919081815260200182805461201a906145ba565b80156120675780601f1061203c57610100808354040283529160200191612067565b820191906000526020600020905b81548152906001019060200180831161204a57829003601f168201915b505050505090506000600660003373ffffffffffffffffffffffffffffffffffffffff1673ffffffffffffffffffffffffffffffffffffffff16815260200190815260200160002060020180546120bd906145ba565b80601f01602080910402602001604051908101604052809291908181526020018280546120e9906145ba565b80156121365780601f1061210b57610100808354040283529160200191612136565b820191906000526020600020905b81548152906001019060200180831161211957829003601f168201915b505050505090506000600660003373ffffffffffffffffffffffffffffffffffffffff1673ffffffffffffffffffffffffffffffffffffffff168152602001908152602001600020600301805461218c906145ba565b80601f01602080910402602001604051908101604052809291908181526020018280546121b8906145ba565b80156122055780601f106121da57610100808354040283529160200191612205565b820191906000526020600020905b8154815290600101906020018083116121e857829003601f168201915b505050505090506000600660003373ffffffffffffffffffffffffffffffffffffffff1673ffffffffffffffffffffffffffffffffffffffff1681526020019081526020016000206004015490506000600660003373ffffffffffffffffffffffffffffffffffffffff1673ffffffffffffffffffffffffffffffffffffffff16815260200190815260200160002060050180546122a2906145ba565b80601f01602080910402602001604051908101604052809291908181526020018280546122ce906145ba565b801561231b5780601f106122f05761010080835404028352916020019161231b565b820191906000526020600020905b8154815290600101906020018083116122fe57829003601f168201915b5050505050905084848484849950995099509950995050505050509091929394565b600060058560405161234f9190614694565b90815260200160405180910390208460405161236b9190614694565b9081526020016040518091039020836040516123879190614694565b908152602001604051809103902060008381526020019081526020016000209050600115158160070160009054906101000a900460ff16151514612400576040517f08c379a00000000000000000000000000000000000000000000000000000000081526004016123f79061497e565b60405180910390fd5b6000816009015490503382600801600083815260200190815260200160002060000160006101000a81548173ffffffffffffffffffffffffffffffffffffffff021916908373ffffffffffffffffffffffffffffffffffffffff160217905550600660003373ffffffffffffffffffffffffffffffffffffffff1673ffffffffffffffffffffffffffffffffffffffff16815260200190815260200160002060070154826008016000838152602001908152602001600020600101819055508160090160008154809291906124d490614542565b91905055506000600460003373ffffffffffffffffffffffffffffffffffffffff1673ffffffffffffffffffffffffffffffffffffffff1681526020019081526020016000206000600660003373ffffffffffffffffffffffffffffffffffffffff1673ffffffffffffffffffffffffffffffffffffffff1681526020019081526020016000206007015481526020019081526020016000209050838160000181905550868160010190805190602001906125909291906138ed565b50858160020190805190602001906125a99291906138ed565b50848160030190805190602001906125c29291906138ed565b50600660003373ffffffffffffffffffffffffffffffffffffffff1673ffffffffffffffffffffffffffffffffffffffff168152602001908152602001600020600701600081548092919061261690614542565b919050555050505050505050565b6000806005866040516126379190614694565b9081526020016040518091039020856040516126539190614694565b90815260200160405180910390208460405161266f9190614694565b9081526020016040518091039020600084815260200190815260200160002060070160009054906101000a900460ff16905080915050949350505050565b60003373ffffffffffffffffffffffffffffffffffffffff16600260003373ffffffffffffffffffffffffffffffffffffffff1673ffffffffffffffffffffffffffffffffffffffff16815260200190815260200160002060000160009054906101000a900473ffffffffffffffffffffffffffffffffffffffff1673ffffffffffffffffffffffffffffffffffffffff16141561274e5760019050612753565b600090505b90565b6000600660003373ffffffffffffffffffffffffffffffffffffffff1673ffffffffffffffffffffffffffffffffffffffff1681526020019081526020016000209050858160010190805190602001906127b19291906138ed565b50848160020190805190602001906127ca9291906138ed565b50838160030190805190602001906127e39291906138ed565b50828160040181905550818160050190805190602001906128059291906138ed565b50505050505050565b60008060006005876040516128239190614694565b90815260200160405180910390208660405161283f9190614694565b90815260200160405180910390208560405161285b9190614694565b9081526020016040518091039020600085815260200190815260200160002060090154905060006005886040516128929190614694565b9081526020016040518091039020876040516128ae9190614694565b9081526020016040518091039020866040516128ca9190614694565b90815260200160405180910390206000868152602001908152602001600020600201549050818193509350505094509492505050565b600360205281600052604060002060205280600052604060002060009150915050806000015490806001018054612936906145ba565b80601f0160208091040260200160405190810160405280929190818152602001828054612962906145ba565b80156129af5780601f10612984576101008083540402835291602001916129af565b820191906000526020600020905b81548152906001019060200180831161299257829003601f168201915b5050505050908060020180546129c4906145ba565b80601f01602080910402602001604051908101604052809291908181526020018280546129f0906145ba565b8015612a3d5780601f10612a1257610100808354040283529160200191612a3d565b820191906000526020600020905b815481529060010190602001808311612a2057829003601f168201915b505050505090806003018054612a52906145ba565b80601f0160208091040260200160405190810160405280929190818152602001828054612a7e906145ba565b8015612acb5780601f10612aa057610100808354040283529160200191612acb565b820191906000526020600020905b815481529060010190602001808311612aae57829003601f168201915b5050505050905084565b6000600360003373ffffffffffffffffffffffffffffffffffffffff1673ffffffffffffffffffffffffffffffffffffffff16815260200190815260200160002060008481526020019081526020016000206000015490506000600360003373ffffffffffffffffffffffffffffffffffffffff1673ffffffffffffffffffffffffffffffffffffffff16815260200190815260200160002060008581526020019081526020016000206001018054612b8d906145ba565b80601f0160208091040260200160405190810160405280929190818152602001828054612bb9906145ba565b8015612c065780601f10612bdb57610100808354040283529160200191612c06565b820191906000526020600020905b815481529060010190602001808311612be957829003601f168201915b505050505090506000600360003373ffffffffffffffffffffffffffffffffffffffff1673ffffffffffffffffffffffffffffffffffffffff16815260200190815260200160002060008681526020019081526020016000206002018054612c6d906145ba565b80601f0160208091040260200160405190810160405280929190818152602001828054612c99906145ba565b8015612ce65780601f10612cbb57610100808354040283529160200191612ce6565b820191906000526020600020905b815481529060010190602001808311612cc957829003601f168201915b505050505090506000600360003373ffffffffffffffffffffffffffffffffffffffff1673ffffffffffffffffffffffffffffffffffffffff16815260200190815260200160002060008781526020019081526020016000206003018054612d4d906145ba565b80601f0160208091040260200160405190810160405280929190818152602001828054612d79906145ba565b8015612dc65780601f10612d9b57610100808354040283529160200191612dc6565b820191906000526020600020905b815481529060010190602001808311612da957829003601f168201915b505050505090506000600584604051612ddf9190614694565b908152602001604051809103902083604051612dfb9190614694565b908152602001604051809103902082604051612e179190614694565b90815260200160405180910390206000868152602001908152602001600020600801600087815260200190815260200160002060000160009054906101000a900473ffffffffffffffffffffffffffffffffffffffff1690506000600585604051612e829190614694565b908152602001604051809103902084604051612e9e9190614694565b908152602001604051809103902083604051612eba9190614694565b9081526020016040518091039020600087815260200190815260200160002060090154905060005b8181101561315d576000600587604051612efc9190614694565b908152602001604051809103902086604051612f189190614694565b908152602001604051809103902085604051612f349190614694565b90815260200160405180910390206000898152602001908152602001600020600801600083815260200190815260200160002060000160009054906101000a900473ffffffffffffffffffffffffffffffffffffffff1690506000600588604051612f9f9190614694565b908152602001604051809103902087604051612fbb9190614694565b908152602001604051809103902086604051612fd79190614694565b908152602001604051809103902060008a81526020019081526020016000206008016000848152602001908152602001600020600101549050600460008373ffffffffffffffffffffffffffffffffffffffff1673ffffffffffffffffffffffffffffffffffffffff16815260200190815260200160002060008281526020019081526020016000206000808201600090556001820160006130799190613973565b6002820160006130899190613973565b6003820160006130999190613973565b50506005886040516130ab9190614694565b9081526020016040518091039020876040516130c79190614694565b9081526020016040518091039020866040516130e39190614694565b908152602001604051809103902060008a81526020019081526020016000206008016000848152602001908152602001600020600080820160006101000a81549073ffffffffffffffffffffffffffffffffffffffff0219169055600182016000905550505050808061315590614542565b915050612ee2565b508160058660405161316f9190614694565b90815260200160405180910390208560405161318b9190614694565b9081526020016040518091039020846040516131a79190614694565b9081526020016040518091039020600088815260200190815260200160002060000160006101000a81548173ffffffffffffffffffffffffffffffffffffffff021916908373ffffffffffffffffffffffffffffffffffffffff16021790555060006005866040516132199190614694565b9081526020016040518091039020856040516132359190614694565b9081526020016040518091039020846040516132519190614694565b9081526020016040518091039020600088815260200190815260200160002060070160006101000a81548160ff021916908315150217905550600060058660405161329c9190614694565b9081526020016040518091039020856040516132b89190614694565b9081526020016040518091039020846040516132d49190614694565b9081526020016040518091039020600088815260200190815260200160002060090181905550600360003373ffffffffffffffffffffffffffffffffffffffff1673ffffffffffffffffffffffffffffffffffffffff16815260200190815260200160002060008981526020019081526020016000206000808201600090556001820160006133639190613973565b6002820160006133739190613973565b6003820160006133839190613973565b50506000600660008473ffffffffffffffffffffffffffffffffffffffff1673ffffffffffffffffffffffffffffffffffffffff1681526020019081526020016000206006015490506000600360008573ffffffffffffffffffffffffffffffffffffffff1673ffffffffffffffffffffffffffffffffffffffff16815260200190815260200160002060008381526020019081526020016000209050878160000181905550868160010190805190602001906134419291906138ed565b508581600201908051906020019061345a9291906138ed565b50848160030190805190602001906134739291906138ed565b50816005886040516134859190614694565b9081526020016040518091039020876040516134a19190614694565b9081526020016040518091039020866040516134bd9190614694565b908152602001604051809103902060008a815260200190815260200160002060040181905550600660008573ffffffffffffffffffffffffffffffffffffffff1673ffffffffffffffffffffffffffffffffffffffff168152602001908152602001600020600601600081548092919061353690614542565b919050555050505050505050505050565b60008060008060008060058a6040516135609190614694565b90815260200160405180910390208960405161357c9190614694565b9081526020016040518091039020886040516135989190614694565b9081526020016040518091039020600088815260200190815260200160002060000160009054906101000a900473ffffffffffffffffffffffffffffffffffffffff169050600060058b6040516135ef9190614694565b90815260200160405180910390208a60405161360b9190614694565b9081526020016040518091039020896040516136279190614694565b90815260200160405180910390206000898152602001908152602001600020600201549050600060058c60405161365e9190614694565b90815260200160405180910390208b60405161367a9190614694565b90815260200160405180910390208a6040516136969190614694565b908152602001604051809103902060008a8152602001908152602001600020600401549050600060058d6040516136cd9190614694565b90815260200160405180910390208c6040516136e99190614694565b90815260200160405180910390208b6040516137059190614694565b908152602001604051809103902060008b8152602001908152602001600020600601549050600060058e60405161373c9190614694565b90815260200160405180910390208d6040516137589190614694565b90815260200160405180910390208c6040516137749190614694565b908152602001604051809103902060008c8152602001908152602001600020600a015490508484848484995099509950995099505050505050945094509450945094565b6000806005866040516137cb9190614694565b9081526020016040518091039020856040516137e79190614694565b9081526020016040518091039020846040516138039190614694565b9081526020016040518091039020600084815260200190815260200160002090506000816009015490506000811415613841576000925050506138df565b60005b818110156138d7573373ffffffffffffffffffffffffffffffffffffffff1683600801600083815260200190815260200160002060000160009054906101000a900473ffffffffffffffffffffffffffffffffffffffff1673ffffffffffffffffffffffffffffffffffffffff1614156138c457600193505050506138df565b80806138cf90614542565b915050613844565b506000925050505b949350505050565b60015481565b8280546138f9906145ba565b90600052602060002090601f01602090048101928261391b5760008555613962565b82601f1061393457805160ff1916838001178555613962565b82800160010185558215613962579182015b82811115613961578251825591602001919060010190613946565b5b50905061396f91906139b3565b5090565b50805461397f906145ba565b6000825580601f1061399157506139b0565b601f0160209004906000526020600020908101906139af91906139b3565b5b50565b5b808211156139cc5760008160009055506001016139b4565b5090565b6000604051905090565b600080fd5b600080fd5b600073ffffffffffffffffffffffffffffffffffffffff82169050919050565b6000613a0f826139e4565b9050919050565b613a1f81613a04565b8114613a2a57600080fd5b50565b600081359050613a3c81613a16565b92915050565b600080fd5b600080fd5b6000601f19601f8301169050919050565b7f4e487b7100000000000000000000000000000000000000000000000000000000600052604160045260246000fd5b613a9582613a4c565b810181811067ffffffffffffffff82111715613ab457613ab3613a5d565b5b80604052505050565b6000613ac76139d0565b9050613ad38282613a8c565b919050565b600067ffffffffffffffff821115613af357613af2613a5d565b5b613afc82613a4c565b9050602081019050919050565b82818337600083830152505050565b6000613b2b613b2684613ad8565b613abd565b905082815260208101848484011115613b4757613b46613a47565b5b613b52848285613b09565b509392505050565b600082601f830112613b6f57613b6e613a42565b5b8135613b7f848260208601613b18565b91505092915050565b60008060008060808587031215613ba257613ba16139da565b5b6000613bb087828801613a2d565b945050602085013567ffffffffffffffff811115613bd157613bd06139df565b5b613bdd87828801613b5a565b935050604085013567ffffffffffffffff811115613bfe57613bfd6139df565b5b613c0a87828801613b5a565b925050606085013567ffffffffffffffff811115613c2b57613c2a6139df565b5b613c3787828801613b5a565b91505092959194509250565b6000819050919050565b613c5681613c43565b8114613c6157600080fd5b50565b600081359050613c7381613c4d565b92915050565b60008060408385031215613c9057613c8f6139da565b5b6000613c9e85828601613a2d565b9250506020613caf85828601613c64565b9150509250929050565b613cc281613c43565b82525050565b600081519050919050565b600082825260208201905092915050565b60005b83811015613d02578082015181840152602081019050613ce7565b83811115613d11576000848401525b50505050565b6000613d2282613cc8565b613d2c8185613cd3565b9350613d3c818560208601613ce4565b613d4581613a4c565b840191505092915050565b6000608082019050613d656000830187613cb9565b8181036020830152613d778186613d17565b90508181036040830152613d8b8185613d17565b90508181036060830152613d9f8184613d17565b905095945050505050565b60008060008060808587031215613dc457613dc36139da565b5b600085013567ffffffffffffffff811115613de257613de16139df565b5b613dee87828801613b5a565b945050602085013567ffffffffffffffff811115613e0f57613e0e6139df565b5b613e1b87828801613b5a565b935050604085013567ffffffffffffffff811115613e3c57613e3b6139df565b5b613e4887828801613b5a565b9250506060613e5987828801613c64565b91505092959194509250565b613e6e81613a04565b82525050565b60008115159050919050565b613e8981613e74565b82525050565b600061014082019050613ea5600083018d613e65565b613eb2602083018c613e65565b613ebf604083018b613cb9565b613ecc606083018a613cb9565b613ed96080830189613cb9565b613ee660a0830188613e80565b613ef360c0830187613cb9565b613f0060e0830186613e80565b613f0e610100830185613cb9565b613f1c610120830184613cb9565b9b9a5050505050505050505050565b600060208284031215613f4157613f406139da565b5b6000613f4f84828501613a2d565b91505092915050565b600061010082019050613f6e600083018b613e65565b8181036020830152613f80818a613d17565b90508181036040830152613f948189613d17565b90508181036060830152613fa88188613d17565b9050613fb76080830187613cb9565b81810360a0830152613fc98186613d17565b9050613fd860c0830185613cb9565b613fe560e0830184613cb9565b9998505050505050505050565b60006020820190506140076000830184613e65565b92915050565b600080600080600080600080610100898b03121561402e5761402d6139da565b5b600089013567ffffffffffffffff81111561404c5761404b6139df565b5b6140588b828c01613b5a565b985050602089013567ffffffffffffffff811115614079576140786139df565b5b6140858b828c01613b5a565b975050604089013567ffffffffffffffff8111156140a6576140a56139df565b5b6140b28b828c01613b5a565b96505060606140c38b828c01613c64565b95505060806140d48b828c01613c64565b94505060a06140e58b828c01613a2d565b93505060c06140f68b828c01613c64565b92505060e06141078b828c01613c64565b9150509295985092959890939650565b60006020828403121561412d5761412c6139da565b5b600061413b84828501613c64565b91505092915050565b6000608082019050818103600083015261415e8187613d17565b905081810360208301526141728186613d17565b905081810360408301526141868185613d17565b90506141956060830184613cb9565b95945050505050565b600080600080600060a086880312156141ba576141b96139da565b5b600086013567ffffffffffffffff8111156141d8576141d76139df565b5b6141e488828901613b5a565b955050602086013567ffffffffffffffff811115614205576142046139df565b5b61421188828901613b5a565b945050604086013567ffffffffffffffff811115614232576142316139df565b5b61423e88828901613b5a565b935050606061424f88828901613c64565b925050608061426088828901613c64565b9150509295509295909350565b60006080820190506142826000830187613e65565b81810360208301526142948186613d17565b905081810360408301526142a88185613d17565b905081810360608301526142bc8184613d17565b905095945050505050565b60006040820190506142dc6000830185613cb9565b6142e96020830184613cb9565b9392505050565b600060a082019050818103600083015261430a8188613d17565b9050818103602083015261431e8187613d17565b905081810360408301526143328186613d17565b90506143416060830185613cb9565b81810360808301526143538184613d17565b90509695505050505050565b60006020820190506143746000830184613e80565b92915050565b600080600080600060a08688031215614396576143956139da565b5b600086013567ffffffffffffffff8111156143b4576143b36139df565b5b6143c088828901613b5a565b955050602086013567ffffffffffffffff8111156143e1576143e06139df565b5b6143ed88828901613b5a565b945050604086013567ffffffffffffffff81111561440e5761440d6139df565b5b61441a88828901613b5a565b935050606061442b88828901613c64565b925050608086013567ffffffffffffffff81111561444c5761444b6139df565b5b61445888828901613b5a565b9150509295509295909350565b6000806040838503121561447c5761447b6139da565b5b600061448a85828601613c64565b925050602061449b85828601613c64565b9150509250929050565b600060a0820190506144ba6000830188613e65565b6144c76020830187613cb9565b6144d46040830186613cb9565b6144e16060830185613cb9565b6144ee6080830184613cb9565b9695505050505050565b600060208201905061450d6000830184613cb9565b92915050565b7f4e487b7100000000000000000000000000000000000000000000000000000000600052601160045260246000fd5b600061454d82613c43565b91507fffffffffffffffffffffffffffffffffffffffffffffffffffffffffffffffff8214156145805761457f614513565b5b600182019050919050565b7f4e487b7100000000000000000000000000000000000000000000000000000000600052602260045260246000fd5b600060028204905060018216806145d257607f821691505b602082108114156145e6576145e561458b565b5b50919050565b7f4f6e6c792061646d696e2063616e205265676973746572206c616e6400000000600082015250565b6000614622601c83613cd3565b915061462d826145ec565b602082019050919050565b6000602082019050818103600083015261465181614615565b9050919050565b600081905092915050565b600061466e82613cc8565b6146788185614658565b9350614688818560208601613ce4565b80840191505092915050565b60006146a08284614663565b915081905092915050565b60008190508160005260206000209050919050565b600081546146cd816145ba565b6146d78186614658565b945060018216600081146146f2576001811461470357614736565b60ff19831686528186019350614736565b61470c856146ab565b60005b8381101561472e5781548189015260018201915060208101905061470f565b838801955050505b50505092915050565b600061474b82846146c0565b915081905092915050565b7f41646d696e2063616e206f6e6c79207265676973746572206c616e64206f662060008201527f73616d6520636974792e00000000000000000000000000000000000000000000602082015250565b60006147b2602a83613cd3565b91506147bd82614756565b604082019050919050565b600060208201905081810360008301526147e1816147a5565b9050919050565b7f537572766579204e756d62657220616c7265616479207265676973746572656460008201527f2100000000000000000000000000000000000000000000000000000000000000602082015250565b6000614844602183613cd3565b915061484f826147e8565b604082019050919050565b6000602082019050818103600083015261487381614837565b9050919050565b7f50726f706572747920616c7265616479206d61726b656420617661696c61626c60008201527f6500000000000000000000000000000000000000000000000000000000000000602082015250565b60006148d6602183613cd3565b91506148e18261487a565b604082019050919050565b60006020820190508181036000830152614905816148c9565b9050919050565b7f546869732070726f7065727479206973204e4f54206d61726b656420666f722060008201527f73616c6521000000000000000000000000000000000000000000000000000000602082015250565b6000614968602583613cd3565b91506149738261490c565b604082019050919050565b600060208201905081810360008301526149978161495b565b905091905056fea264697066735822122084a4e634be6e94a33e3b90bb785e570cd4ee12fb6ee7c16cd6d0ecffcaa1644d64736f6c63430008090033",
  "immutableReferences": {},
  "source": "// SPDX-License-Identifier: MIT\r\npragma solidity >= 0.5.0 < 0.9.0;\r\n\r\ncontract Registry{\r\n\r\n    address public superAdmin;\r\n    uint public totalAdmins;\r\n    \r\n    struct Admin{\r\n        address adminAddress;\r\n        string city;\r\n        string district;\r\n        string state;\r\n    }\r\n\r\n    struct LandDetails{\r\n        address owner;\r\n        address admin;\r\n        uint256 propertyId;\r\n        uint surveyNumber;\r\n        uint index;\r\n        bool registered;\r\n        uint marketValue;\r\n        bool markAvailable;\r\n        mapping(uint => RequestDetails) requests; // reqNo => RequestDetails\r\n        uint noOfRequests;  // other users requested to this land\r\n        uint sqft;\r\n    }\r\n\r\n    struct UserProfile{\r\n        address userAddr;\r\n        string fullName;\r\n        string gender;\r\n        string email;\r\n        uint256 contact;\r\n        string residentialAddr;\r\n        uint totalIndices;\r\n        uint requestIndices;  // this user requested to other lands\r\n    }\r\n\r\n    struct OwnerOwns{\r\n        uint surveyNumber;\r\n        string state;\r\n        string district;\r\n        string city;\r\n    }\r\n    \r\n    struct RequestedLands{\r\n        uint surveyNumber;\r\n        string state;\r\n        string district;\r\n        string city;\r\n    }\r\n\r\n    struct RequestDetails{\r\n        address whoRequested;\r\n        uint reqIndex;\r\n    }\r\n\r\n    mapping(address => Admin) public admins;\r\n    mapping(address => mapping(uint => OwnerOwns)) public ownerMapsProperty;  // ownerAddr => index no. => OwnerOwns \r\n    mapping(address => mapping(uint => RequestedLands)) public requestedLands;  // ownerAddr => reqIndex => RequestedLands\r\n    mapping(string => mapping(string => mapping(string => mapping(uint => LandDetails)))) public landDetalsMap; // state => district => city => surveyNo => LandDetails\r\n    mapping(address => UserProfile) public userProfile;\r\n    \r\n\r\n    constructor(){\r\n        superAdmin = msg.sender;\r\n    }\r\n\r\n    modifier onlyAdmin(){\r\n        require(admins[msg.sender].adminAddress == msg.sender, \"Only admin can Register land\");\r\n        _;\r\n    }\r\n\r\n\r\n    // SuperAdmin: Registers new admin\r\n    function addAdmin(address _adminAddr, string memory _state, string memory _district, string memory _city) external{\r\n        Admin storage newAdmin = admins[_adminAddr];\r\n        totalAdmins++;\r\n\r\n        newAdmin.adminAddress = _adminAddr;\r\n        newAdmin.city = _city;\r\n        newAdmin.district = _district;\r\n        newAdmin.state = _state;\r\n    }\r\n\r\n\r\n    // check if it is admin\r\n    function isAdmin() external view returns(bool){\r\n        if(admins[msg.sender].adminAddress == msg.sender){\r\n            return true;\r\n        }\r\n        else return false;\r\n    }\r\n\r\n\r\n    // Admin: registers land\r\n    function registerLand(string memory _state, string memory _district, string memory _city, uint256 _propertyId, uint _surveyNo, address _owner, uint _marketValue, uint _sqft) external onlyAdmin{\r\n        \r\n        require(keccak256(abi.encodePacked(admins[msg.sender].state)) == keccak256(abi.encodePacked(_state))  \r\n        && keccak256(abi.encodePacked(admins[msg.sender].district)) == keccak256(abi.encodePacked(_district))\r\n        && keccak256(abi.encodePacked(admins[msg.sender].city)) == keccak256(abi.encodePacked(_city)), \"Admin can only register land of same city.\");\r\n\r\n        require(landDetalsMap[_state][_district][_city][_surveyNo].registered == false, \"Survey Number already registered!\");\r\n\r\n        LandDetails storage newLandRegistry = landDetalsMap[_state][_district][_city][_surveyNo];\r\n        OwnerOwns storage newOwnerOwns = ownerMapsProperty[_owner][userProfile[_owner].totalIndices];\r\n        \r\n\r\n        newLandRegistry.owner = _owner;\r\n        newLandRegistry.admin = msg.sender;\r\n        newLandRegistry.propertyId = _propertyId;\r\n        newLandRegistry.surveyNumber = _surveyNo;\r\n        newLandRegistry.index = userProfile[_owner].totalIndices;\r\n        newLandRegistry.registered = true;\r\n        newLandRegistry.marketValue = _marketValue;\r\n        newLandRegistry.markAvailable = false;\r\n        newLandRegistry.sqft = _sqft;\r\n\r\n        newOwnerOwns.surveyNumber = _surveyNo;\r\n        newOwnerOwns.state = _state;\r\n        newOwnerOwns.district = _district;\r\n        newOwnerOwns.city = _city;\r\n\r\n        userProfile[_owner].totalIndices++;\r\n    }\r\n\r\n\r\n    // User_1: set user profile\r\n    function setUserProfile(string memory _fullName, string memory _gender, string memory _email, uint256 _contact, string memory _residentialAddr) external{\r\n        \r\n        UserProfile storage newUserProfile = userProfile[msg.sender];\r\n\r\n        newUserProfile.fullName = _fullName;\r\n        newUserProfile.gender = _gender;\r\n        newUserProfile.email = _email;\r\n        newUserProfile.contact = _contact;\r\n        newUserProfile.residentialAddr = _residentialAddr;\r\n    }\r\n\r\n\r\n    // User_1: mark property available\r\n    function markMyPropertyAvailable(uint indexNo) external {\r\n        \r\n        string memory state = ownerMapsProperty[msg.sender][indexNo].state;\r\n        string memory district = ownerMapsProperty[msg.sender][indexNo].district;\r\n        string memory city = ownerMapsProperty[msg.sender][indexNo].city;\r\n        uint surveyNumber = ownerMapsProperty[msg.sender][indexNo].surveyNumber;\r\n\r\n        require(landDetalsMap[state][district][city][surveyNumber].markAvailable == false, \"Property already marked available\");\r\n\r\n        landDetalsMap[state][district][city][surveyNumber].markAvailable = true;\r\n    \r\n    }\r\n\r\n\r\n    // User_2: Request for buy  **ownerAddress & index = arguements** \r\n    function RequestForBuy(string memory _state, string memory _district, string memory _city, uint _surveyNo) external{\r\n\r\n        LandDetails storage thisLandDetail = landDetalsMap[_state][_district][_city][_surveyNo];\r\n        require(thisLandDetail.markAvailable == true, \"This property is NOT marked for sale!\");\r\n\r\n        uint req_serialNum = thisLandDetail.noOfRequests; \r\n        thisLandDetail.requests[req_serialNum].whoRequested = msg.sender;\r\n        thisLandDetail.requests[req_serialNum].reqIndex = userProfile[msg.sender].requestIndices;\r\n        thisLandDetail.noOfRequests++;\r\n\r\n        // adding requested land to user_2 profile\r\n        RequestedLands storage newReqestedLands = requestedLands[msg.sender][userProfile[msg.sender].requestIndices];\r\n        newReqestedLands.surveyNumber = _surveyNo;\r\n        newReqestedLands.state = _state;\r\n        newReqestedLands.district = _district;\r\n        newReqestedLands.city = _city;\r\n\r\n        userProfile[msg.sender].requestIndices++;\r\n\r\n    }\r\n\r\n\r\n    // User_1: Accept the buy request; sell.\r\n    function AcceptRequest(uint _index, uint _reqNo) external{\r\n\r\n        uint _surveyNo = ownerMapsProperty[msg.sender][_index].surveyNumber;\r\n        string memory _state = ownerMapsProperty[msg.sender][_index].state; \r\n        string memory _district = ownerMapsProperty[msg.sender][_index].district;\r\n        string memory _city = ownerMapsProperty[msg.sender][_index].city;\r\n        \r\n        // updating LandDetails\r\n        address newOwner = landDetalsMap[_state][_district][_city][_surveyNo].requests[_reqNo].whoRequested;\r\n        // uint newOwner_reqIndex = landDetalsMap[_state][_district][_city][_surveyNo].requests[_reqNo].reqIndex;\r\n        uint noOfReq = landDetalsMap[_state][_district][_city][_surveyNo].noOfRequests;\r\n\r\n        // deleting requested land from all requesters AND removing all incoming requests\r\n        for(uint i=0; i<noOfReq; i++){\r\n            address requesterAddr = landDetalsMap[_state][_district][_city][_surveyNo].requests[i].whoRequested;\r\n            uint requester_reqIndx = landDetalsMap[_state][_district][_city][_surveyNo].requests[i].reqIndex;\r\n            \r\n            delete requestedLands[requesterAddr][requester_reqIndx];\r\n            delete landDetalsMap[_state][_district][_city][_surveyNo].requests[i];\r\n        }\r\n\r\n        landDetalsMap[_state][_district][_city][_surveyNo].owner = newOwner;\r\n        landDetalsMap[_state][_district][_city][_surveyNo].markAvailable = false;\r\n        landDetalsMap[_state][_district][_city][_surveyNo].noOfRequests = 0;\r\n\r\n        // deleting property from user_1's ownerMapsProperty \r\n        delete ownerMapsProperty[msg.sender][_index];\r\n\r\n        // adding ownerMapsProperty for newOwner\r\n        uint newOwnerTotProp = userProfile[newOwner].totalIndices;\r\n        OwnerOwns storage newOwnerOwns = ownerMapsProperty[newOwner][newOwnerTotProp];\r\n       \r\n        newOwnerOwns.surveyNumber = _surveyNo;\r\n        newOwnerOwns.state = _state;\r\n        newOwnerOwns.district = _district;\r\n        newOwnerOwns.city = _city;\r\n\r\n        landDetalsMap[_state][_district][_city][_surveyNo].index = newOwnerTotProp;\r\n\r\n        userProfile[newOwner].totalIndices++;\r\n\r\n    }\r\n\r\n\r\n    \r\n    //******* GETTERS **********\r\n\r\n    // return land details \r\n    function getLandDetails(string memory _state, string memory _district, string memory _city, uint _surveyNo) external view returns(address, uint256, uint, uint, uint){\r\n        \r\n        address owner = landDetalsMap[_state][_district][_city][_surveyNo].owner;\r\n        uint256 propertyid = landDetalsMap[_state][_district][_city][_surveyNo].propertyId;\r\n        uint indx = landDetalsMap[_state][_district][_city][_surveyNo].index;\r\n        uint mv = landDetalsMap[_state][_district][_city][_surveyNo].marketValue;\r\n        uint sqft = landDetalsMap[_state][_district][_city][_surveyNo].sqft;\r\n\r\n        return(owner, propertyid, indx, mv, sqft);\r\n    }\r\n\r\n    function getRequestCnt_propId(string memory _state, string memory _district, string memory _city, uint _surveyNo) external view returns(uint, uint256){\r\n        uint _noOfRequests = landDetalsMap[_state][_district][_city][_surveyNo].noOfRequests;\r\n        uint256 _propertyId = landDetalsMap[_state][_district][_city][_surveyNo].propertyId;\r\n        return(_noOfRequests, _propertyId);\r\n    }\r\n\r\n    function getRequesterDetail(string memory _state, string memory _district, string memory _city, uint _surveyNo, uint _reqIndex) external view returns(address){\r\n        address requester = landDetalsMap[_state][_district][_city][_surveyNo].requests[_reqIndex].whoRequested;\r\n        return(requester);\r\n    }\r\n\r\n    function isAvailable(string memory _state, string memory _district, string memory _city, uint _surveyNo) external view returns(bool){\r\n        bool available = landDetalsMap[_state][_district][_city][_surveyNo].markAvailable;\r\n        return(available);\r\n    }\r\n\r\n    function getOwnerOwns(uint indx) external view returns(string memory, string memory, string memory, uint){\r\n        \r\n        uint surveyNo = ownerMapsProperty[msg.sender][indx].surveyNumber;\r\n        string memory state = ownerMapsProperty[msg.sender][indx].state;\r\n        string memory district = ownerMapsProperty[msg.sender][indx].district;\r\n        string memory city = ownerMapsProperty[msg.sender][indx].city;\r\n\r\n        return(state, district, city, surveyNo);\r\n    }\r\n\r\n    function getRequestedLands(uint indx) external view returns(string memory, string memory, string memory, uint){\r\n        \r\n        uint surveyNo = requestedLands[msg.sender][indx].surveyNumber;\r\n        string memory state = requestedLands[msg.sender][indx].state;\r\n        string memory district = requestedLands[msg.sender][indx].district;\r\n        string memory city = requestedLands[msg.sender][indx].city;\r\n\r\n        return(state, district, city, surveyNo);\r\n    }\r\n\r\n    function getUserProfile() external view returns(string memory, string memory, string memory, uint256, string memory){\r\n        \r\n        string memory fullName = userProfile[msg.sender].fullName;\r\n        string memory gender = userProfile[msg.sender].gender;\r\n        string memory email = userProfile[msg.sender].email;\r\n        uint256 contact = userProfile[msg.sender].contact;\r\n        string memory residentialAddr = userProfile[msg.sender].residentialAddr;\r\n\r\n        return(fullName, gender, email, contact, residentialAddr);\r\n    }\r\n\r\n    function getIndices() external view returns(uint, uint){\r\n\r\n        uint _totalIndices = userProfile[msg.sender].totalIndices;\r\n        uint _reqIndices = userProfile[msg.sender].requestIndices;\r\n\r\n        return(_totalIndices, _reqIndices);\r\n    }\r\n\r\n\r\n    function didIRequested(string memory _state, string memory _district, string memory _city, uint _surveyNo) external view returns(bool){\r\n        \r\n        LandDetails storage thisLandDetail = landDetalsMap[_state][_district][_city][_surveyNo];\r\n        uint _noOfRequests = thisLandDetail.noOfRequests;\r\n\r\n        if(_noOfRequests == 0) \r\n            return (false);\r\n\r\n        for(uint i=0; i<_noOfRequests; i++){\r\n            if(thisLandDetail.requests[i].whoRequested == msg.sender){\r\n                return (true);\r\n            }\r\n        } \r\n\r\n        return(false);\r\n    } \r\n\r\n}",
  "sourcePath": "C:\\Users\\harsh\\Desktop\\Original Repo\\contracts\\Registry.sol",
  "compiler": {
    "name": "solc",
    "version": "0.8.9+commit.e5eed63a.Emscripten.clang"
  },
  "schemaVersion": "3.4.7",
  "updatedAt": "2022-06-26T08:54:54.722Z",
  "networkType": "ethereum",
  "devdoc": {
    "kind": "dev",
    "methods": {},
    "version": 1
  },
  "userdoc": {
    "kind": "user",
    "methods": {},
    "version": 1
  }
}